{
  "_format": "hh-sol-artifact-1",
  "contractName": "MapClaims",
  "sourceName": "contracts/MapClaims.sol",
  "abi": [
    {
      "inputs": [],
      "stateMutability": "nonpayable",
      "type": "constructor"
    },
    {
      "inputs": [
        {
          "components": [
            {
              "internalType": "address",
              "name": "patientWalletAddress",
              "type": "address"
            },
            {
              "internalType": "uint256",
              "name": "claimNumber",
              "type": "uint256"
            },
            {
              "internalType": "string",
              "name": "claimAmount",
              "type": "string"
            },
            {
              "internalType": "string",
              "name": "claimInfo",
              "type": "string"
            },
            {
              "internalType": "bool",
              "name": "claimStatus",
              "type": "bool"
            },
            {
              "internalType": "string",
              "name": "hospitalName",
              "type": "string"
            },
            {
              "internalType": "string",
              "name": "hospitalStreetAddress",
              "type": "string"
            },
            {
              "internalType": "string",
              "name": "hospitalCity",
              "type": "string"
            },
            {
              "internalType": "string",
              "name": "hospitalState",
              "type": "string"
            },
            {
              "internalType": "uint256",
              "name": "hospitalZipCode",
              "type": "uint256"
            },
            {
              "internalType": "string",
              "name": "hospitalPhoneNumber",
              "type": "string"
            },
            {
              "internalType": "string",
              "name": "hospitalLongitude",
              "type": "string"
            },
            {
              "internalType": "string",
              "name": "hospitalLatitude",
              "type": "string"
            },
            {
              "internalType": "uint256",
              "name": "usStateIndex",
              "type": "uint256"
            },
            {
              "internalType": "int256",
              "name": "usHospitalIndex",
              "type": "int256"
            }
          ],
          "internalType": "struct MapClaims.Claim",
          "name": "claim",
          "type": "tuple"
        },
        {
          "internalType": "string",
          "name": "hospitalNewClaimTotal",
          "type": "string"
        },
        {
          "internalType": "string",
          "name": "patientNewClaimTotal",
          "type": "string"
        }
      ],
      "name": "addHospitalRecord",
      "outputs": [],
      "stateMutability": "nonpayable",
      "type": "function"
    },
    {
      "inputs": [
        {
          "internalType": "uint256",
          "name": "quePosition",
          "type": "uint256"
        },
        {
          "internalType": "string",
          "name": "protocolNewClaimTotal",
          "type": "string"
        },
        {
          "internalType": "string",
          "name": "userNewClaimTotal",
          "type": "string"
        },
        {
          "internalType": "string",
          "name": "hospitalNewClaimTotal",
          "type": "string"
        },
        {
          "internalType": "string",
          "name": "patientNewClaimTotal",
          "type": "string"
        }
      ],
      "name": "approveClaim",
      "outputs": [],
      "stateMutability": "nonpayable",
      "type": "function"
    },
    {
      "inputs": [
        {
          "internalType": "address",
          "name": "patientWalletAddress",
          "type": "address"
        }
      ],
      "name": "banPatient",
      "outputs": [],
      "stateMutability": "nonpayable",
      "type": "function"
    },
    {
      "inputs": [
        {
          "internalType": "address",
          "name": "patientWalletAddress",
          "type": "address"
        },
        {
          "internalType": "uint256",
          "name": "quePosition",
          "type": "uint256"
        }
      ],
      "name": "banPatientAndRemoveFromClaimQueue",
      "outputs": [],
      "stateMutability": "nonpayable",
      "type": "function"
    },
    {
      "inputs": [
        {
          "internalType": "address",
          "name": "patientWalletAddress",
          "type": "address"
        },
        {
          "internalType": "uint256",
          "name": "quePosition",
          "type": "uint256"
        }
      ],
      "name": "denyClaim",
      "outputs": [],
      "stateMutability": "nonpayable",
      "type": "function"
    },
    {
      "inputs": [
        {
          "internalType": "uint256",
          "name": "quePosition",
          "type": "uint256"
        },
        {
          "components": [
            {
              "internalType": "address",
              "name": "patientWalletAddress",
              "type": "address"
            },
            {
              "internalType": "uint256",
              "name": "claimNumber",
              "type": "uint256"
            },
            {
              "internalType": "string",
              "name": "claimAmount",
              "type": "string"
            },
            {
              "internalType": "string",
              "name": "claimInfo",
              "type": "string"
            },
            {
              "internalType": "bool",
              "name": "claimStatus",
              "type": "bool"
            },
            {
              "internalType": "string",
              "name": "hospitalName",
              "type": "string"
            },
            {
              "internalType": "string",
              "name": "hospitalStreetAddress",
              "type": "string"
            },
            {
              "internalType": "string",
              "name": "hospitalCity",
              "type": "string"
            },
            {
              "internalType": "string",
              "name": "hospitalState",
              "type": "string"
            },
            {
              "internalType": "uint256",
              "name": "hospitalZipCode",
              "type": "uint256"
            },
            {
              "internalType": "string",
              "name": "hospitalPhoneNumber",
              "type": "string"
            },
            {
              "internalType": "string",
              "name": "hospitalLongitude",
              "type": "string"
            },
            {
              "internalType": "string",
              "name": "hospitalLatitude",
              "type": "string"
            },
            {
              "internalType": "uint256",
              "name": "usStateIndex",
              "type": "uint256"
            },
            {
              "internalType": "int256",
              "name": "usHospitalIndex",
              "type": "int256"
            }
          ],
          "internalType": "struct MapClaims.Claim",
          "name": "editedClaim",
          "type": "tuple"
        }
      ],
      "name": "editClaim",
      "outputs": [],
      "stateMutability": "nonpayable",
      "type": "function"
    },
    {
      "inputs": [],
      "name": "getBanList",
      "outputs": [
        {
          "internalType": "address[]",
          "name": "",
          "type": "address[]"
        }
      ],
      "stateMutability": "view",
      "type": "function"
    },
    {
      "inputs": [],
      "name": "getClaimQueue",
      "outputs": [
        {
          "components": [
            {
              "internalType": "address",
              "name": "patientWalletAddress",
              "type": "address"
            },
            {
              "internalType": "uint256",
              "name": "claimNumber",
              "type": "uint256"
            },
            {
              "internalType": "string",
              "name": "claimAmount",
              "type": "string"
            },
            {
              "internalType": "string",
              "name": "claimInfo",
              "type": "string"
            },
            {
              "internalType": "bool",
              "name": "claimStatus",
              "type": "bool"
            },
            {
              "internalType": "string",
              "name": "hospitalName",
              "type": "string"
            },
            {
              "internalType": "string",
              "name": "hospitalStreetAddress",
              "type": "string"
            },
            {
              "internalType": "string",
              "name": "hospitalCity",
              "type": "string"
            },
            {
              "internalType": "string",
              "name": "hospitalState",
              "type": "string"
            },
            {
              "internalType": "uint256",
              "name": "hospitalZipCode",
              "type": "uint256"
            },
            {
              "internalType": "string",
              "name": "hospitalPhoneNumber",
              "type": "string"
            },
            {
              "internalType": "string",
              "name": "hospitalLongitude",
              "type": "string"
            },
            {
              "internalType": "string",
              "name": "hospitalLatitude",
              "type": "string"
            },
            {
              "internalType": "uint256",
              "name": "usStateIndex",
              "type": "uint256"
            },
            {
              "internalType": "int256",
              "name": "usHospitalIndex",
              "type": "int256"
            }
          ],
          "internalType": "struct MapClaims.Claim[]",
          "name": "",
          "type": "tuple[]"
        }
      ],
      "stateMutability": "view",
      "type": "function"
    },
    {
      "inputs": [
        {
          "internalType": "uint256",
          "name": "stateIndex",
          "type": "uint256"
        },
        {
          "internalType": "uint256",
          "name": "hospitalIndex",
          "type": "uint256"
        }
      ],
      "name": "getHospitalClaimTotal",
      "outputs": [
        {
          "internalType": "string",
          "name": "",
          "type": "string"
        }
      ],
      "stateMutability": "view",
      "type": "function"
    },
    {
      "inputs": [
        {
          "internalType": "uint256",
          "name": "stateIndex",
          "type": "uint256"
        },
        {
          "internalType": "uint256",
          "name": "hospitalIndex",
          "type": "uint256"
        }
      ],
      "name": "getHospitalPatientList",
      "outputs": [
        {
          "internalType": "address[]",
          "name": "",
          "type": "address[]"
        }
      ],
      "stateMutability": "view",
      "type": "function"
    },
    {
      "inputs": [
        {
          "internalType": "uint256",
          "name": "stateIndex",
          "type": "uint256"
        },
        {
          "internalType": "uint256",
          "name": "hospitalIndex",
          "type": "uint256"
        },
        {
          "internalType": "address",
          "name": "patientWalletAddress",
          "type": "address"
        }
      ],
      "name": "getHospitalPatientRecords",
      "outputs": [
        {
          "components": [
            {
              "internalType": "address",
              "name": "patientWalletAddress",
              "type": "address"
            },
            {
              "internalType": "string",
              "name": "claimTotal",
              "type": "string"
            },
            {
              "internalType": "string[]",
              "name": "claimRecords",
              "type": "string[]"
            },
            {
              "internalType": "string[]",
              "name": "claimAmounts",
              "type": "string[]"
            }
          ],
          "internalType": "struct MapClaims.PatientRecord",
          "name": "",
          "type": "tuple"
        }
      ],
      "stateMutability": "view",
      "type": "function"
    },
    {
      "inputs": [
        {
          "internalType": "address",
          "name": "patientWalletAddress",
          "type": "address"
        }
      ],
      "name": "getPatientClaimHistory",
      "outputs": [
        {
          "components": [
            {
              "internalType": "address",
              "name": "patientWalletAddress",
              "type": "address"
            },
            {
              "internalType": "uint256",
              "name": "claimNumber",
              "type": "uint256"
            },
            {
              "internalType": "string",
              "name": "claimAmount",
              "type": "string"
            },
            {
              "internalType": "string",
              "name": "claimInfo",
              "type": "string"
            },
            {
              "internalType": "bool",
              "name": "claimStatus",
              "type": "bool"
            },
            {
              "internalType": "string",
              "name": "hospitalName",
              "type": "string"
            },
            {
              "internalType": "string",
              "name": "hospitalStreetAddress",
              "type": "string"
            },
            {
              "internalType": "string",
              "name": "hospitalCity",
              "type": "string"
            },
            {
              "internalType": "string",
              "name": "hospitalState",
              "type": "string"
            },
            {
              "internalType": "uint256",
              "name": "hospitalZipCode",
              "type": "uint256"
            },
            {
              "internalType": "string",
              "name": "hospitalPhoneNumber",
              "type": "string"
            },
            {
              "internalType": "string",
              "name": "hospitalLongitude",
              "type": "string"
            },
            {
              "internalType": "string",
              "name": "hospitalLatitude",
              "type": "string"
            },
            {
              "internalType": "uint256",
              "name": "usStateIndex",
              "type": "uint256"
            },
            {
              "internalType": "int256",
              "name": "usHospitalIndex",
              "type": "int256"
            }
          ],
          "internalType": "struct MapClaims.Claim[]",
          "name": "",
          "type": "tuple[]"
        }
      ],
      "stateMutability": "view",
      "type": "function"
    },
    {
      "inputs": [],
      "name": "getProtocolApprovedClaimTotal",
      "outputs": [
        {
          "internalType": "string",
          "name": "",
          "type": "string"
        }
      ],
      "stateMutability": "view",
      "type": "function"
    },
    {
      "inputs": [
        {
          "internalType": "uint256",
          "name": "stateIndex",
          "type": "uint256"
        }
      ],
      "name": "getStateHospitalList",
      "outputs": [
        {
          "components": [
            {
              "internalType": "string",
              "name": "hospitalName",
              "type": "string"
            },
            {
              "internalType": "string",
              "name": "hospitalStreetAddress",
              "type": "string"
            },
            {
              "internalType": "string",
              "name": "hospitalCity",
              "type": "string"
            },
            {
              "internalType": "string",
              "name": "hospitalState",
              "type": "string"
            },
            {
              "internalType": "uint256",
              "name": "hospitalZipCode",
              "type": "uint256"
            },
            {
              "internalType": "string",
              "name": "hospitalPhoneNumber",
              "type": "string"
            },
            {
              "internalType": "string",
              "name": "hospitalLongitude",
              "type": "string"
            },
            {
              "internalType": "string",
              "name": "hospitalLatitude",
              "type": "string"
            },
            {
              "internalType": "string",
              "name": "claimTotal",
              "type": "string"
            }
          ],
          "internalType": "struct MapClaims.Hospital[]",
          "name": "",
          "type": "tuple[]"
        }
      ],
      "stateMutability": "view",
      "type": "function"
    },
    {
      "inputs": [
        {
          "internalType": "address",
          "name": "patientWalletAddress",
          "type": "address"
        }
      ],
      "name": "getUserProtocolClaimTotal",
      "outputs": [
        {
          "internalType": "string",
          "name": "",
          "type": "string"
        }
      ],
      "stateMutability": "view",
      "type": "function"
    },
    {
      "inputs": [
        {
          "components": [
            {
              "internalType": "address",
              "name": "patientWalletAddress",
              "type": "address"
            },
            {
              "internalType": "uint256",
              "name": "claimNumber",
              "type": "uint256"
            },
            {
              "internalType": "string",
              "name": "claimAmount",
              "type": "string"
            },
            {
              "internalType": "string",
              "name": "claimInfo",
              "type": "string"
            },
            {
              "internalType": "bool",
              "name": "claimStatus",
              "type": "bool"
            },
            {
              "internalType": "string",
              "name": "hospitalName",
              "type": "string"
            },
            {
              "internalType": "string",
              "name": "hospitalStreetAddress",
              "type": "string"
            },
            {
              "internalType": "string",
              "name": "hospitalCity",
              "type": "string"
            },
            {
              "internalType": "string",
              "name": "hospitalState",
              "type": "string"
            },
            {
              "internalType": "uint256",
              "name": "hospitalZipCode",
              "type": "uint256"
            },
            {
              "internalType": "string",
              "name": "hospitalPhoneNumber",
              "type": "string"
            },
            {
              "internalType": "string",
              "name": "hospitalLongitude",
              "type": "string"
            },
            {
              "internalType": "string",
              "name": "hospitalLatitude",
              "type": "string"
            },
            {
              "internalType": "uint256",
              "name": "usStateIndex",
              "type": "uint256"
            },
            {
              "internalType": "int256",
              "name": "usHospitalIndex",
              "type": "int256"
            }
          ],
          "internalType": "struct MapClaims.Claim",
          "name": "claim",
          "type": "tuple"
        }
      ],
      "name": "submitClaim",
      "outputs": [],
      "stateMutability": "nonpayable",
      "type": "function"
    },
    {
      "inputs": [
        {
          "internalType": "address",
          "name": "patientWalletAddress",
          "type": "address"
        },
        {
          "internalType": "uint256",
          "name": "banIndex",
          "type": "uint256"
        }
      ],
      "name": "unbanPatient",
      "outputs": [],
      "stateMutability": "nonpayable",
      "type": "function"
    }
  ],
  "bytecode": "0x608060405234801561001057600080fd5b50738626f6940e2eb28930efb4cef49b2d1f2c9c1199600260006101000a81548173ffffffffffffffffffffffffffffffffffffffff021916908373ffffffffffffffffffffffffffffffffffffffff160217905550615da280620000766000396000f3fe608060405234801561001057600080fd5b506004361061010b5760003560e01c806373c9afcc116100a2578063a033e27a11610071578063a033e27a146102da578063dd6a4f21146102f8578063eb44926f14610314578063f11a9c6114610330578063f80218421461034e5761010b565b806373c9afcc14610254578063792ae9f7146102725780637b65abd71461028e578063805a4f66146102be5761010b565b806344e6555e116100de57806344e6555e146101bc57806362d13fa2146101ec57806368c46fee146102085780636c58aa98146102385761010b565b80631e776fc8146101105780633ae66232146101405780633da61e4a146101705780633f14d1d61461018c575b600080fd5b61012a60048036038101906101259190614921565b61036a565b6040516101379190614ba5565b60405180910390f35b61015a60048036038101906101559190614bc7565b610877565b6040516101679190614cf7565b60405180910390f35b61018a60048036038101906101859190614d45565b61092a565b005b6101a660048036038101906101a19190614d72565b610a42565b6040516101b39190614ef8565b60405180910390f35b6101d660048036038101906101d19190614bc7565b610d59565b6040516101e39190614f64565b60405180910390f35b61020660048036038101906102019190614f86565b610e22565b005b610222600480360381019061021d9190614d45565b6111bf565b60405161022f9190614f64565b60405180910390f35b610252600480360381019061024d91906153d3565b611290565b005b61025c61168b565b604051610269919061568a565b60405180910390f35b61028c600480360381019061028791906156ac565b611ca6565b005b6102a860048036038101906102a39190614d45565b6127b0565b6040516102b5919061568a565b60405180910390f35b6102d860048036038101906102d39190614f86565b612e0a565b005b6102e2612fb3565b6040516102ef9190614cf7565b60405180910390f35b610312600480360381019061030d9190615797565b613041565b005b61032e600480360381019061032991906157e0565b613501565b005b610338614289565b6040516103459190614f64565b60405180910390f35b61036860048036038101906103639190614f86565b61431b565b005b6060600c6000838152602001908152602001600020805480602002602001604051908101604052809291908181526020016000905b8282101561086c5783829060005260206000209060090201604051806101200160405290816000820180546103d3906158b6565b80601f01602080910402602001604051908101604052809291908181526020018280546103ff906158b6565b801561044c5780601f106104215761010080835404028352916020019161044c565b820191906000526020600020905b81548152906001019060200180831161042f57829003601f168201915b50505050508152602001600182018054610465906158b6565b80601f0160208091040260200160405190810160405280929190818152602001828054610491906158b6565b80156104de5780601f106104b3576101008083540402835291602001916104de565b820191906000526020600020905b8154815290600101906020018083116104c157829003601f168201915b505050505081526020016002820180546104f7906158b6565b80601f0160208091040260200160405190810160405280929190818152602001828054610523906158b6565b80156105705780601f1061054557610100808354040283529160200191610570565b820191906000526020600020905b81548152906001019060200180831161055357829003601f168201915b50505050508152602001600382018054610589906158b6565b80601f01602080910402602001604051908101604052809291908181526020018280546105b5906158b6565b80156106025780601f106105d757610100808354040283529160200191610602565b820191906000526020600020905b8154815290600101906020018083116105e557829003601f168201915b5050505050815260200160048201548152602001600582018054610625906158b6565b80601f0160208091040260200160405190810160405280929190818152602001828054610651906158b6565b801561069e5780601f106106735761010080835404028352916020019161069e565b820191906000526020600020905b81548152906001019060200180831161068157829003601f168201915b505050505081526020016006820180546106b7906158b6565b80601f01602080910402602001604051908101604052809291908181526020018280546106e3906158b6565b80156107305780601f1061070557610100808354040283529160200191610730565b820191906000526020600020905b81548152906001019060200180831161071357829003601f168201915b50505050508152602001600782018054610749906158b6565b80601f0160208091040260200160405190810160405280929190818152602001828054610775906158b6565b80156107c25780601f10610797576101008083540402835291602001916107c2565b820191906000526020600020905b8154815290600101906020018083116107a557829003601f168201915b505050505081526020016008820180546107db906158b6565b80601f0160208091040260200160405190810160405280929190818152602001828054610807906158b6565b80156108545780601f1061082957610100808354040283529160200191610854565b820191906000526020600020905b81548152906001019060200180831161083757829003601f168201915b5050505050815250508152602001906001019061039f565b505050509050919050565b6060600d6000848152602001908152602001600020600083815260200190815260200160002080548060200260200160405190810160405280929190818152602001828054801561091d57602002820191906000526020600020905b8160009054906101000a900473ffffffffffffffffffffffffffffffffffffffff1673ffffffffffffffffffffffffffffffffffffffff16815260200190600101908083116108d3575b5050505050905092915050565b3373ffffffffffffffffffffffffffffffffffffffff16600260009054906101000a900473ffffffffffffffffffffffffffffffffffffffff1673ffffffffffffffffffffffffffffffffffffffff161461098457600080fd5b6001600a60008373ffffffffffffffffffffffffffffffffffffffff1673ffffffffffffffffffffffffffffffffffffffff16815260200190815260200160002060006101000a81548160ff021916908315150217905550600b819080600181540180825580915050600190039060005260206000200160009091909190916101000a81548173ffffffffffffffffffffffffffffffffffffffff021916908373ffffffffffffffffffffffffffffffffffffffff16021790555050565b610a4a614773565b600e6000858152602001908152602001600020600084815260200190815260200160002060008373ffffffffffffffffffffffffffffffffffffffff1673ffffffffffffffffffffffffffffffffffffffff1681526020019081526020016000206040518060800160405290816000820160009054906101000a900473ffffffffffffffffffffffffffffffffffffffff1673ffffffffffffffffffffffffffffffffffffffff1673ffffffffffffffffffffffffffffffffffffffff168152602001600182018054610b1c906158b6565b80601f0160208091040260200160405190810160405280929190818152602001828054610b48906158b6565b8015610b955780601f10610b6a57610100808354040283529160200191610b95565b820191906000526020600020905b815481529060010190602001808311610b7857829003601f168201915b5050505050815260200160028201805480602002602001604051908101604052809291908181526020016000905b82821015610c6f578382906000526020600020018054610be2906158b6565b80601f0160208091040260200160405190810160405280929190818152602001828054610c0e906158b6565b8015610c5b5780601f10610c3057610100808354040283529160200191610c5b565b820191906000526020600020905b815481529060010190602001808311610c3e57829003601f168201915b505050505081526020019060010190610bc3565b50505050815260200160038201805480602002602001604051908101604052809291908181526020016000905b82821015610d48578382906000526020600020018054610cbb906158b6565b80601f0160208091040260200160405190810160405280929190818152602001828054610ce7906158b6565b8015610d345780601f10610d0957610100808354040283529160200191610d34565b820191906000526020600020905b815481529060010190602001808311610d1757829003601f168201915b505050505081526020019060010190610c9c565b505050508152505090509392505050565b6060600c60008481526020019081526020016000208281548110610d8057610d7f6158e7565b5b90600052602060002090600902016008018054610d9c906158b6565b80601f0160208091040260200160405190810160405280929190818152602001828054610dc8906158b6565b8015610e155780601f10610dea57610100808354040283529160200191610e15565b820191906000526020600020905b815481529060010190602001808311610df857829003601f168201915b5050505050905092915050565b3373ffffffffffffffffffffffffffffffffffffffff16600260009054906101000a900473ffffffffffffffffffffffffffffffffffffffff1673ffffffffffffffffffffffffffffffffffffffff1614610e7c57600080fd5b6000600960008473ffffffffffffffffffffffffffffffffffffffff1673ffffffffffffffffffffffffffffffffffffffff16815260200190815260200160002060006101000a81548160ff02191690831515021790555060036001600380549050610ee89190615945565b81548110610ef957610ef86158e7565b5b90600052602060002090600f020160038281548110610f1b57610f1a6158e7565b5b90600052602060002090600f02016000820160009054906101000a900473ffffffffffffffffffffffffffffffffffffffff168160000160006101000a81548173ffffffffffffffffffffffffffffffffffffffff021916908373ffffffffffffffffffffffffffffffffffffffff1602179055506001820154816001015560028201816002019081610fae9190615b3b565b5060038201816003019081610fc39190615b3b565b506004820160009054906101000a900460ff168160040160006101000a81548160ff021916908315150217905550600582018160050190816110059190615b3b565b506006820181600601908161101a9190615b3b565b506007820181600701908161102f9190615b3b565b50600882018160080190816110449190615b3b565b5060098201548160090155600a820181600a0190816110639190615b3b565b50600b820181600b0190816110789190615b3b565b50600c820181600c01908161108d9190615b3b565b50600d82015481600d0155600e82015481600e015590505060038054806110b7576110b6615c23565b5b60019003818190600052602060002090600f0201600080820160006101000a81549073ffffffffffffffffffffffffffffffffffffffff0219169055600182016000905560028201600061110b91906147b1565b60038201600061111b91906147b1565b6004820160006101000a81549060ff021916905560058201600061113f91906147b1565b60068201600061114f91906147b1565b60078201600061115f91906147b1565b60088201600061116f91906147b1565b6009820160009055600a8201600061118791906147b1565b600b8201600061119791906147b1565b600c820160006111a791906147b1565b600d820160009055600e820160009055505090555050565b6060600460008373ffffffffffffffffffffffffffffffffffffffff1673ffffffffffffffffffffffffffffffffffffffff168152602001908152602001600020805461120b906158b6565b80601f0160208091040260200160405190810160405280929190818152602001828054611237906158b6565b80156112845780601f1061125957610100808354040283529160200191611284565b820191906000526020600020905b81548152906001019060200180831161126757829003601f168201915b50505050509050919050565b3373ffffffffffffffffffffffffffffffffffffffff16600260009054906101000a900473ffffffffffffffffffffffffffffffffffffffff1673ffffffffffffffffffffffffffffffffffffffff16146112ea57600080fd5b80600383815481106112ff576112fe6158e7565b5b90600052602060002090600f020160008201518160000160006101000a81548173ffffffffffffffffffffffffffffffffffffffff021916908373ffffffffffffffffffffffffffffffffffffffff1602179055506020820151816001015560408201518160020190816113739190615c52565b5060608201518160030190816113899190615c52565b5060808201518160040160006101000a81548160ff02191690831515021790555060a08201518160050190816113bf9190615c52565b5060c08201518160060190816113d59190615c52565b5060e08201518160070190816113eb9190615c52565b506101008201518160080190816114029190615c52565b50610120820151816009015561014082015181600a0190816114249190615c52565b5061016082015181600b01908161143b9190615c52565b5061018082015181600c0190816114529190615c52565b506101a082015181600d01556101c082015181600e01559050506000600160056000846000015173ffffffffffffffffffffffffffffffffffffffff1673ffffffffffffffffffffffffffffffffffffffff168152602001908152602001600020805490506114c19190615945565b90508160056000846000015173ffffffffffffffffffffffffffffffffffffffff1673ffffffffffffffffffffffffffffffffffffffff1681526020019081526020016000208281548110611519576115186158e7565b5b90600052602060002090600f020160008201518160000160006101000a81548173ffffffffffffffffffffffffffffffffffffffff021916908373ffffffffffffffffffffffffffffffffffffffff16021790555060208201518160010155604082015181600201908161158d9190615c52565b5060608201518160030190816115a39190615c52565b5060808201518160040160006101000a81548160ff02191690831515021790555060a08201518160050190816115d99190615c52565b5060c08201518160060190816115ef9190615c52565b5060e08201518160070190816116059190615c52565b5061010082015181600801908161161c9190615c52565b50610120820151816009015561014082015181600a01908161163e9190615c52565b5061016082015181600b0190816116559190615c52565b5061018082015181600c01908161166c9190615c52565b506101a082015181600d01556101c082015181600e0155905050505050565b60606003805480602002602001604051908101604052809291908181526020016000905b82821015611c9d57838290600052602060002090600f0201604051806101e00160405290816000820160009054906101000a900473ffffffffffffffffffffffffffffffffffffffff1673ffffffffffffffffffffffffffffffffffffffff1673ffffffffffffffffffffffffffffffffffffffff16815260200160018201548152602001600282018054611743906158b6565b80601f016020809104026020016040519081016040528092919081815260200182805461176f906158b6565b80156117bc5780601f10611791576101008083540402835291602001916117bc565b820191906000526020600020905b81548152906001019060200180831161179f57829003601f168201915b505050505081526020016003820180546117d5906158b6565b80601f0160208091040260200160405190810160405280929190818152602001828054611801906158b6565b801561184e5780601f106118235761010080835404028352916020019161184e565b820191906000526020600020905b81548152906001019060200180831161183157829003601f168201915b505050505081526020016004820160009054906101000a900460ff16151515158152602001600582018054611882906158b6565b80601f01602080910402602001604051908101604052809291908181526020018280546118ae906158b6565b80156118fb5780601f106118d0576101008083540402835291602001916118fb565b820191906000526020600020905b8154815290600101906020018083116118de57829003601f168201915b50505050508152602001600682018054611914906158b6565b80601f0160208091040260200160405190810160405280929190818152602001828054611940906158b6565b801561198d5780601f106119625761010080835404028352916020019161198d565b820191906000526020600020905b81548152906001019060200180831161197057829003601f168201915b505050505081526020016007820180546119a6906158b6565b80601f01602080910402602001604051908101604052809291908181526020018280546119d2906158b6565b8015611a1f5780601f106119f457610100808354040283529160200191611a1f565b820191906000526020600020905b815481529060010190602001808311611a0257829003601f168201915b50505050508152602001600882018054611a38906158b6565b80601f0160208091040260200160405190810160405280929190818152602001828054611a64906158b6565b8015611ab15780601f10611a8657610100808354040283529160200191611ab1565b820191906000526020600020905b815481529060010190602001808311611a9457829003601f168201915b5050505050815260200160098201548152602001600a82018054611ad4906158b6565b80601f0160208091040260200160405190810160405280929190818152602001828054611b00906158b6565b8015611b4d5780601f10611b2257610100808354040283529160200191611b4d565b820191906000526020600020905b815481529060010190602001808311611b3057829003601f168201915b50505050508152602001600b82018054611b66906158b6565b80601f0160208091040260200160405190810160405280929190818152602001828054611b92906158b6565b8015611bdf5780601f10611bb457610100808354040283529160200191611bdf565b820191906000526020600020905b815481529060010190602001808311611bc257829003601f168201915b50505050508152602001600c82018054611bf8906158b6565b80601f0160208091040260200160405190810160405280929190818152602001828054611c24906158b6565b8015611c715780601f10611c4657610100808354040283529160200191611c71565b820191906000526020600020905b815481529060010190602001808311611c5457829003601f168201915b50505050508152602001600d8201548152602001600e82015481525050815260200190600101906116af565b50505050905090565b3373ffffffffffffffffffffffffffffffffffffffff16600260009054906101000a900473ffffffffffffffffffffffffffffffffffffffff1673ffffffffffffffffffffffffffffffffffffffff1614611d0057600080fd5b8360009081611d0f9190615c52565b50600060038681548110611d2657611d256158e7565b5b90600052602060002090600f020160000160009054906101000a900473ffffffffffffffffffffffffffffffffffffffff16905060006001600560008473ffffffffffffffffffffffffffffffffffffffff1673ffffffffffffffffffffffffffffffffffffffff16815260200190815260200160002080549050611dab9190615945565b90506000600960008473ffffffffffffffffffffffffffffffffffffffff1673ffffffffffffffffffffffffffffffffffffffff16815260200190815260200160002060006101000a81548160ff0219169083151502179055506001600560008473ffffffffffffffffffffffffffffffffffffffff1673ffffffffffffffffffffffffffffffffffffffff1681526020019081526020016000208281548110611e5857611e576158e7565b5b90600052602060002090600f020160040160006101000a81548160ff02191690831515021790555084600460008473ffffffffffffffffffffffffffffffffffffffff1673ffffffffffffffffffffffffffffffffffffffff1681526020019081526020016000209081611ecc9190615c52565b506124c060038881548110611ee457611ee36158e7565b5b90600052602060002090600f0201604051806101e00160405290816000820160009054906101000a900473ffffffffffffffffffffffffffffffffffffffff1673ffffffffffffffffffffffffffffffffffffffff1673ffffffffffffffffffffffffffffffffffffffff16815260200160018201548152602001600282018054611f6e906158b6565b80601f0160208091040260200160405190810160405280929190818152602001828054611f9a906158b6565b8015611fe75780601f10611fbc57610100808354040283529160200191611fe7565b820191906000526020600020905b815481529060010190602001808311611fca57829003601f168201915b50505050508152602001600382018054612000906158b6565b80601f016020809104026020016040519081016040528092919081815260200182805461202c906158b6565b80156120795780601f1061204e57610100808354040283529160200191612079565b820191906000526020600020905b81548152906001019060200180831161205c57829003601f168201915b505050505081526020016004820160009054906101000a900460ff161515151581526020016005820180546120ad906158b6565b80601f01602080910402602001604051908101604052809291908181526020018280546120d9906158b6565b80156121265780601f106120fb57610100808354040283529160200191612126565b820191906000526020600020905b81548152906001019060200180831161210957829003601f168201915b5050505050815260200160068201805461213f906158b6565b80601f016020809104026020016040519081016040528092919081815260200182805461216b906158b6565b80156121b85780601f1061218d576101008083540402835291602001916121b8565b820191906000526020600020905b81548152906001019060200180831161219b57829003601f168201915b505050505081526020016007820180546121d1906158b6565b80601f01602080910402602001604051908101604052809291908181526020018280546121fd906158b6565b801561224a5780601f1061221f5761010080835404028352916020019161224a565b820191906000526020600020905b81548152906001019060200180831161222d57829003601f168201915b50505050508152602001600882018054612263906158b6565b80601f016020809104026020016040519081016040528092919081815260200182805461228f906158b6565b80156122dc5780601f106122b1576101008083540402835291602001916122dc565b820191906000526020600020905b8154815290600101906020018083116122bf57829003601f168201915b5050505050815260200160098201548152602001600a820180546122ff906158b6565b80601f016020809104026020016040519081016040528092919081815260200182805461232b906158b6565b80156123785780601f1061234d57610100808354040283529160200191612378565b820191906000526020600020905b81548152906001019060200180831161235b57829003601f168201915b50505050508152602001600b82018054612391906158b6565b80601f01602080910402602001604051908101604052809291908181526020018280546123bd906158b6565b801561240a5780601f106123df5761010080835404028352916020019161240a565b820191906000526020600020905b8154815290600101906020018083116123ed57829003601f168201915b50505050508152602001600c82018054612423906158b6565b80601f016020809104026020016040519081016040528092919081815260200182805461244f906158b6565b801561249c5780601f106124715761010080835404028352916020019161249c565b820191906000526020600020905b81548152906001019060200180831161247f57829003601f168201915b50505050508152602001600d8201548152602001600e820154815250508585613501565b600360016003805490506124d49190615945565b815481106124e5576124e46158e7565b5b90600052602060002090600f020160038881548110612507576125066158e7565b5b90600052602060002090600f02016000820160009054906101000a900473ffffffffffffffffffffffffffffffffffffffff168160000160006101000a81548173ffffffffffffffffffffffffffffffffffffffff021916908373ffffffffffffffffffffffffffffffffffffffff160217905550600182015481600101556002820181600201908161259a9190615b3b565b50600382018160030190816125af9190615b3b565b506004820160009054906101000a900460ff168160040160006101000a81548160ff021916908315150217905550600582018160050190816125f19190615b3b565b50600682018160060190816126069190615b3b565b506007820181600701908161261b9190615b3b565b50600882018160080190816126309190615b3b565b5060098201548160090155600a820181600a01908161264f9190615b3b565b50600b820181600b0190816126649190615b3b565b50600c820181600c0190816126799190615b3b565b50600d82015481600d0155600e82015481600e015590505060038054806126a3576126a2615c23565b5b60019003818190600052602060002090600f0201600080820160006101000a81549073ffffffffffffffffffffffffffffffffffffffff021916905560018201600090556002820160006126f791906147b1565b60038201600061270791906147b1565b6004820160006101000a81549060ff021916905560058201600061272b91906147b1565b60068201600061273b91906147b1565b60078201600061274b91906147b1565b60088201600061275b91906147b1565b6009820160009055600a8201600061277391906147b1565b600b8201600061278391906147b1565b600c8201600061279391906147b1565b600d820160009055600e8201600090555050905550505050505050565b6060600560008373ffffffffffffffffffffffffffffffffffffffff1673ffffffffffffffffffffffffffffffffffffffff168152602001908152602001600020805480602002602001604051908101604052809291908181526020016000905b82821015612dff57838290600052602060002090600f0201604051806101e00160405290816000820160009054906101000a900473ffffffffffffffffffffffffffffffffffffffff1673ffffffffffffffffffffffffffffffffffffffff1673ffffffffffffffffffffffffffffffffffffffff168152602001600182015481526020016002820180546128a5906158b6565b80601f01602080910402602001604051908101604052809291908181526020018280546128d1906158b6565b801561291e5780601f106128f35761010080835404028352916020019161291e565b820191906000526020600020905b81548152906001019060200180831161290157829003601f168201915b50505050508152602001600382018054612937906158b6565b80601f0160208091040260200160405190810160405280929190818152602001828054612963906158b6565b80156129b05780601f10612985576101008083540402835291602001916129b0565b820191906000526020600020905b81548152906001019060200180831161299357829003601f168201915b505050505081526020016004820160009054906101000a900460ff161515151581526020016005820180546129e4906158b6565b80601f0160208091040260200160405190810160405280929190818152602001828054612a10906158b6565b8015612a5d5780601f10612a3257610100808354040283529160200191612a5d565b820191906000526020600020905b815481529060010190602001808311612a4057829003601f168201915b50505050508152602001600682018054612a76906158b6565b80601f0160208091040260200160405190810160405280929190818152602001828054612aa2906158b6565b8015612aef5780601f10612ac457610100808354040283529160200191612aef565b820191906000526020600020905b815481529060010190602001808311612ad257829003601f168201915b50505050508152602001600782018054612b08906158b6565b80601f0160208091040260200160405190810160405280929190818152602001828054612b34906158b6565b8015612b815780601f10612b5657610100808354040283529160200191612b81565b820191906000526020600020905b815481529060010190602001808311612b6457829003601f168201915b50505050508152602001600882018054612b9a906158b6565b80601f0160208091040260200160405190810160405280929190818152602001828054612bc6906158b6565b8015612c135780601f10612be857610100808354040283529160200191612c13565b820191906000526020600020905b815481529060010190602001808311612bf657829003601f168201915b5050505050815260200160098201548152602001600a82018054612c36906158b6565b80601f0160208091040260200160405190810160405280929190818152602001828054612c62906158b6565b8015612caf5780601f10612c8457610100808354040283529160200191612caf565b820191906000526020600020905b815481529060010190602001808311612c9257829003601f168201915b50505050508152602001600b82018054612cc8906158b6565b80601f0160208091040260200160405190810160405280929190818152602001828054612cf4906158b6565b8015612d415780601f10612d1657610100808354040283529160200191612d41565b820191906000526020600020905b815481529060010190602001808311612d2457829003601f168201915b50505050508152602001600c82018054612d5a906158b6565b80601f0160208091040260200160405190810160405280929190818152602001828054612d86906158b6565b8015612dd35780601f10612da857610100808354040283529160200191612dd3565b820191906000526020600020905b815481529060010190602001808311612db657829003601f168201915b50505050508152602001600d8201548152602001600e8201548152505081526020019060010190612811565b505050509050919050565b3373ffffffffffffffffffffffffffffffffffffffff16600260009054906101000a900473ffffffffffffffffffffffffffffffffffffffff1673ffffffffffffffffffffffffffffffffffffffff1614612e6457600080fd5b6000600a60008473ffffffffffffffffffffffffffffffffffffffff1673ffffffffffffffffffffffffffffffffffffffff16815260200190815260200160002060006101000a81548160ff021916908315150217905550600b6001600b80549050612ed09190615945565b81548110612ee157612ee06158e7565b5b9060005260206000200160009054906101000a900473ffffffffffffffffffffffffffffffffffffffff16600b8281548110612f2057612f1f6158e7565b5b9060005260206000200160006101000a81548173ffffffffffffffffffffffffffffffffffffffff021916908373ffffffffffffffffffffffffffffffffffffffff160217905550600b805480612f7a57612f79615c23565b5b6001900381819060005260206000200160006101000a81549073ffffffffffffffffffffffffffffffffffffffff021916905590555050565b6060600b80548060200260200160405190810160405280929190818152602001828054801561303757602002820191906000526020600020905b8160009054906101000a900473ffffffffffffffffffffffffffffffffffffffff1673ffffffffffffffffffffffffffffffffffffffff1681526020019060010190808311612fed575b5050505050905090565b60001515600a60003373ffffffffffffffffffffffffffffffffffffffff1673ffffffffffffffffffffffffffffffffffffffff16815260200190815260200160002060009054906101000a900460ff1615151461309e57600080fd5b60001515600960003373ffffffffffffffffffffffffffffffffffffffff1673ffffffffffffffffffffffffffffffffffffffff16815260200190815260200160002060009054906101000a900460ff161515146130fb57600080fd5b60016000815461310a90615d24565b9190508190555060015481602001818152505033816000019073ffffffffffffffffffffffffffffffffffffffff16908173ffffffffffffffffffffffffffffffffffffffff168152505060038190806001815401808255809150506001900390600052602060002090600f020160009091909190915060008201518160000160006101000a81548173ffffffffffffffffffffffffffffffffffffffff021916908373ffffffffffffffffffffffffffffffffffffffff1602179055506020820151816001015560408201518160020190816131e79190615c52565b5060608201518160030190816131fd9190615c52565b5060808201518160040160006101000a81548160ff02191690831515021790555060a08201518160050190816132339190615c52565b5060c08201518160060190816132499190615c52565b5060e082015181600701908161325f9190615c52565b506101008201518160080190816132769190615c52565b50610120820151816009015561014082015181600a0190816132989190615c52565b5061016082015181600b0190816132af9190615c52565b5061018082015181600c0190816132c69190615c52565b506101a082015181600d01556101c082015181600e01555050600560003373ffffffffffffffffffffffffffffffffffffffff1673ffffffffffffffffffffffffffffffffffffffff1681526020019081526020016000208190806001815401808255809150506001900390600052602060002090600f020160009091909190915060008201518160000160006101000a81548173ffffffffffffffffffffffffffffffffffffffff021916908373ffffffffffffffffffffffffffffffffffffffff1602179055506020820151816001015560408201518160020190816133ae9190615c52565b5060608201518160030190816133c49190615c52565b5060808201518160040160006101000a81548160ff02191690831515021790555060a08201518160050190816133fa9190615c52565b5060c08201518160060190816134109190615c52565b5060e08201518160070190816134269190615c52565b5061010082015181600801908161343d9190615c52565b50610120820151816009015561014082015181600a01908161345f9190615c52565b5061016082015181600b0190816134769190615c52565b5061018082015181600c01908161348d9190615c52565b506101a082015181600d01556101c082015181600e015550506001600960003373ffffffffffffffffffffffffffffffffffffffff1673ffffffffffffffffffffffffffffffffffffffff16815260200190815260200160002060006101000a81548160ff02191690831515021790555050565b3373ffffffffffffffffffffffffffffffffffffffff16600260009054906101000a900473ffffffffffffffffffffffffffffffffffffffff1673ffffffffffffffffffffffffffffffffffffffff161461355b57600080fd5b7fffffffffffffffffffffffffffffffffffffffffffffffffffffffffffffffff836101c001510361358c57600080fd5b60076000846101a0015181526020019081526020016000206000846101c00151815260200190815260200160002060009054906101000a900460ff16613b65576135d46147f1565b8360a0015181600001819052508360c0015181602001819052508360e00151816040018190525083610100015181606001819052508361012001518160800181815250508361014001518160a001819052508361016001518160c001819052508361018001518160e0018190525082816101000181905250613654614773565b8460000151816000019073ffffffffffffffffffffffffffffffffffffffff16908173ffffffffffffffffffffffffffffffffffffffff1681525050828160200181905250600167ffffffffffffffff8111156136b4576136b3614fcb565b5b6040519080825280602002602001820160405280156136e757816020015b60608152602001906001900390816136d25790505b508160400181905250600167ffffffffffffffff81111561370b5761370a614fcb565b5b60405190808252806020026020018201604052801561373e57816020015b60608152602001906001900390816137295790505b50816060018190525084606001518160400151600081518110613764576137636158e7565b5b60200260200101819052508460400151816060015160008151811061378c5761378b6158e7565b5b6020026020010181905250600c6000866101a00151815260200190815260200160002082908060018154018082558091505060019003906000526020600020906009020160009091909190915060008201518160000190816137ee9190615c52565b5060208201518160010190816138049190615c52565b50604082015181600201908161381a9190615c52565b5060608201518160030190816138309190615c52565b506080820151816004015560a08201518160050190816138509190615c52565b5060c08201518160060190816138669190615c52565b5060e082015181600701908161387c9190615c52565b506101008201518160080190816138939190615c52565b505050600160076000876101a0015181526020019081526020016000206000876101c00151815260200190815260200160002060006101000a81548160ff021916908315150217905550600d6000866101a0015181526020019081526020016000206000866101c00151815260200190815260200160002085600001519080600181540180825580915050600190039060005260206000200160009091909190916101000a81548173ffffffffffffffffffffffffffffffffffffffff021916908373ffffffffffffffffffffffffffffffffffffffff16021790555080600e6000876101a0015181526020019081526020016000206000876101c0015181526020019081526020016000206000876000015173ffffffffffffffffffffffffffffffffffffffff1673ffffffffffffffffffffffffffffffffffffffff16815260200190815260200160002060008201518160000160006101000a81548173ffffffffffffffffffffffffffffffffffffffff021916908373ffffffffffffffffffffffffffffffffffffffff1602179055506020820151816001019081613a3c9190615c52565b506040820151816002019080519060200190613a5992919061483d565b506060820151816003019080519060200190613a7692919061483d565b50905050600160086000876101a0015181526020019081526020016000206000876101c0015181526020019081526020016000206000876000015173ffffffffffffffffffffffffffffffffffffffff1673ffffffffffffffffffffffffffffffffffffffff16815260200190815260200160002060006101000a81548160ff021916908315150217905550600060096000836000015173ffffffffffffffffffffffffffffffffffffffff1673ffffffffffffffffffffffffffffffffffffffff16815260200190815260200160002060006101000a81548160ff0219169083151502179055505050614284565b60086000846101a0015181526020019081526020016000206000846101c0015181526020019081526020016000206000846000015173ffffffffffffffffffffffffffffffffffffffff1673ffffffffffffffffffffffffffffffffffffffff16815260200190815260200160002060009054906101000a900460ff166140065781600c6000856101a001518152602001908152602001600020846101c0015181548110613c1657613c156158e7565b5b90600052602060002090600902016008019081613c339190615c52565b50613c3c614773565b8360000151816000019073ffffffffffffffffffffffffffffffffffffffff16908173ffffffffffffffffffffffffffffffffffffffff1681525050818160200181905250600167ffffffffffffffff811115613c9c57613c9b614fcb565b5b604051908082528060200260200182016040528015613ccf57816020015b6060815260200190600190039081613cba5790505b508160400181905250600167ffffffffffffffff811115613cf357613cf2614fcb565b5b604051908082528060200260200182016040528015613d2657816020015b6060815260200190600190039081613d115790505b50816060018190525083606001518160400151600081518110613d4c57613d4b6158e7565b5b602002602001018190525083604001518160600151600081518110613d7457613d736158e7565b5b6020026020010181905250600d6000856101a0015181526020019081526020016000206000856101c00151815260200190815260200160002084600001519080600181540180825580915050600190039060005260206000200160009091909190916101000a81548173ffffffffffffffffffffffffffffffffffffffff021916908373ffffffffffffffffffffffffffffffffffffffff16021790555080600e6000866101a0015181526020019081526020016000206000866101c0015181526020019081526020016000206000866000015173ffffffffffffffffffffffffffffffffffffffff1673ffffffffffffffffffffffffffffffffffffffff16815260200190815260200160002060008201518160000160006101000a81548173ffffffffffffffffffffffffffffffffffffffff021916908373ffffffffffffffffffffffffffffffffffffffff1602179055506020820151816001019081613ede9190615c52565b506040820151816002019080519060200190613efb92919061483d565b506060820151816003019080519060200190613f1892919061483d565b50905050600160086000866101a0015181526020019081526020016000206000866101c0015181526020019081526020016000206000866000015173ffffffffffffffffffffffffffffffffffffffff1673ffffffffffffffffffffffffffffffffffffffff16815260200190815260200160002060006101000a81548160ff021916908315150217905550600060096000866000015173ffffffffffffffffffffffffffffffffffffffff1673ffffffffffffffffffffffffffffffffffffffff16815260200190815260200160002060006101000a81548160ff02191690831515021790555050614283565b81600c6000856101a001518152602001908152602001600020846101c0015181548110614036576140356158e7565b5b906000526020600020906009020160080190816140539190615c52565b5080600e6000856101a0015181526020019081526020016000206000856101c0015181526020019081526020016000206000856000015173ffffffffffffffffffffffffffffffffffffffff1673ffffffffffffffffffffffffffffffffffffffff16815260200190815260200160002060010190816140d39190615c52565b50600e6000846101a0015181526020019081526020016000206000846101c0015181526020019081526020016000206000846000015173ffffffffffffffffffffffffffffffffffffffff1673ffffffffffffffffffffffffffffffffffffffff168152602001908152602001600020600201836060015190806001815401808255809150506001900390600052602060002001600090919091909150908161417c9190615c52565b50600e6000846101a0015181526020019081526020016000206000846101c0015181526020019081526020016000206000846000015173ffffffffffffffffffffffffffffffffffffffff1673ffffffffffffffffffffffffffffffffffffffff16815260200190815260200160002060030183604001519080600181540180825580915050600190039060005260206000200160009091909190915090816142259190615c52565b50600060096000856000015173ffffffffffffffffffffffffffffffffffffffff1673ffffffffffffffffffffffffffffffffffffffff16815260200190815260200160002060006101000a81548160ff0219169083151502179055505b5b505050565b606060008054614298906158b6565b80601f01602080910402602001604051908101604052809291908181526020018280546142c4906158b6565b80156143115780601f106142e657610100808354040283529160200191614311565b820191906000526020600020905b8154815290600101906020018083116142f457829003601f168201915b5050505050905090565b3373ffffffffffffffffffffffffffffffffffffffff16600260009054906101000a900473ffffffffffffffffffffffffffffffffffffffff1673ffffffffffffffffffffffffffffffffffffffff161461437557600080fd5b6001600a60008473ffffffffffffffffffffffffffffffffffffffff1673ffffffffffffffffffffffffffffffffffffffff16815260200190815260200160002060006101000a81548160ff0219169083151502179055506000600960008473ffffffffffffffffffffffffffffffffffffffff1673ffffffffffffffffffffffffffffffffffffffff16815260200190815260200160002060006101000a81548160ff021916908315150217905550600b829080600181540180825580915050600190039060005260206000200160009091909190916101000a81548173ffffffffffffffffffffffffffffffffffffffff021916908373ffffffffffffffffffffffffffffffffffffffff1602179055506003600160038054905061449c9190615945565b815481106144ad576144ac6158e7565b5b90600052602060002090600f0201600382815481106144cf576144ce6158e7565b5b90600052602060002090600f02016000820160009054906101000a900473ffffffffffffffffffffffffffffffffffffffff168160000160006101000a81548173ffffffffffffffffffffffffffffffffffffffff021916908373ffffffffffffffffffffffffffffffffffffffff16021790555060018201548160010155600282018160020190816145629190615b3b565b50600382018160030190816145779190615b3b565b506004820160009054906101000a900460ff168160040160006101000a81548160ff021916908315150217905550600582018160050190816145b99190615b3b565b50600682018160060190816145ce9190615b3b565b50600782018160070190816145e39190615b3b565b50600882018160080190816145f89190615b3b565b5060098201548160090155600a820181600a0190816146179190615b3b565b50600b820181600b01908161462c9190615b3b565b50600c820181600c0190816146419190615b3b565b50600d82015481600d0155600e82015481600e0155905050600380548061466b5761466a615c23565b5b60019003818190600052602060002090600f0201600080820160006101000a81549073ffffffffffffffffffffffffffffffffffffffff021916905560018201600090556002820160006146bf91906147b1565b6003820160006146cf91906147b1565b6004820160006101000a81549060ff02191690556005820160006146f391906147b1565b60068201600061470391906147b1565b60078201600061471391906147b1565b60088201600061472391906147b1565b6009820160009055600a8201600061473b91906147b1565b600b8201600061474b91906147b1565b600c8201600061475b91906147b1565b600d820160009055600e820160009055505090555050565b6040518060800160405280600073ffffffffffffffffffffffffffffffffffffffff1681526020016060815260200160608152602001606081525090565b5080546147bd906158b6565b6000825580601f106147cf57506147ee565b601f0160209004906000526020600020908101906147ed9190614896565b5b50565b6040518061012001604052806060815260200160608152602001606081526020016060815260200160008152602001606081526020016060815260200160608152602001606081525090565b828054828255906000526020600020908101928215614885579160200282015b828111156148845782518290816148749190615c52565b509160200191906001019061485d565b5b50905061489291906148b3565b5090565b5b808211156148af576000816000905550600101614897565b5090565b5b808211156148d357600081816148ca91906147b1565b506001016148b4565b5090565b6000604051905090565b600080fd5b600080fd5b6000819050919050565b6148fe816148eb565b811461490957600080fd5b50565b60008135905061491b816148f5565b92915050565b600060208284031215614937576149366148e1565b5b60006149458482850161490c565b91505092915050565b600081519050919050565b600082825260208201905092915050565b6000819050602082019050919050565b600081519050919050565b600082825260208201905092915050565b60005b838110156149b4578082015181840152602081019050614999565b60008484015250505050565b6000601f19601f8301169050919050565b60006149dc8261497a565b6149e68185614985565b93506149f6818560208601614996565b6149ff816149c0565b840191505092915050565b614a13816148eb565b82525050565b6000610120830160008301518482036000860152614a3782826149d1565b91505060208301518482036020860152614a5182826149d1565b91505060408301518482036040860152614a6b82826149d1565b91505060608301518482036060860152614a8582826149d1565b9150506080830151614a9a6080860182614a0a565b5060a083015184820360a0860152614ab282826149d1565b91505060c083015184820360c0860152614acc82826149d1565b91505060e083015184820360e0860152614ae682826149d1565b915050610100830151848203610100860152614b0282826149d1565b9150508091505092915050565b6000614b1b8383614a19565b905092915050565b6000602082019050919050565b6000614b3b8261494e565b614b458185614959565b935083602082028501614b578561496a565b8060005b85811015614b935784840389528151614b748582614b0f565b9450614b7f83614b23565b925060208a01995050600181019050614b5b565b50829750879550505050505092915050565b60006020820190508181036000830152614bbf8184614b30565b905092915050565b60008060408385031215614bde57614bdd6148e1565b5b6000614bec8582860161490c565b9250506020614bfd8582860161490c565b9150509250929050565b600081519050919050565b600082825260208201905092915050565b6000819050602082019050919050565b600073ffffffffffffffffffffffffffffffffffffffff82169050919050565b6000614c5e82614c33565b9050919050565b614c6e81614c53565b82525050565b6000614c808383614c65565b60208301905092915050565b6000602082019050919050565b6000614ca482614c07565b614cae8185614c12565b9350614cb983614c23565b8060005b83811015614cea578151614cd18882614c74565b9750614cdc83614c8c565b925050600181019050614cbd565b5085935050505092915050565b60006020820190508181036000830152614d118184614c99565b905092915050565b614d2281614c53565b8114614d2d57600080fd5b50565b600081359050614d3f81614d19565b92915050565b600060208284031215614d5b57614d5a6148e1565b5b6000614d6984828501614d30565b91505092915050565b600080600060608486031215614d8b57614d8a6148e1565b5b6000614d998682870161490c565b9350506020614daa8682870161490c565b9250506040614dbb86828701614d30565b9150509250925092565b600081519050919050565b600082825260208201905092915050565b6000819050602082019050919050565b6000614dfd83836149d1565b905092915050565b6000602082019050919050565b6000614e1d82614dc5565b614e278185614dd0565b935083602082028501614e3985614de1565b8060005b85811015614e755784840389528151614e568582614df1565b9450614e6183614e05565b925060208a01995050600181019050614e3d565b50829750879550505050505092915050565b6000608083016000830151614e9f6000860182614c65565b5060208301518482036020860152614eb782826149d1565b91505060408301518482036040860152614ed18282614e12565b91505060608301518482036060860152614eeb8282614e12565b9150508091505092915050565b60006020820190508181036000830152614f128184614e87565b905092915050565b600082825260208201905092915050565b6000614f368261497a565b614f408185614f1a565b9350614f50818560208601614996565b614f59816149c0565b840191505092915050565b60006020820190508181036000830152614f7e8184614f2b565b905092915050565b60008060408385031215614f9d57614f9c6148e1565b5b6000614fab85828601614d30565b9250506020614fbc8582860161490c565b9150509250929050565b600080fd5b7f4e487b7100000000000000000000000000000000000000000000000000000000600052604160045260246000fd5b615003826149c0565b810181811067ffffffffffffffff8211171561502257615021614fcb565b5b80604052505050565b60006150356148d7565b90506150418282614ffa565b919050565b600080fd5b600080fd5b600080fd5b600067ffffffffffffffff8211156150705761506f614fcb565b5b615079826149c0565b9050602081019050919050565b82818337600083830152505050565b60006150a86150a384615055565b61502b565b9050828152602081018484840111156150c4576150c3615050565b5b6150cf848285615086565b509392505050565b600082601f8301126150ec576150eb61504b565b5b81356150fc848260208601615095565b91505092915050565b60008115159050919050565b61511a81615105565b811461512557600080fd5b50565b60008135905061513781615111565b92915050565b6000819050919050565b6151508161513d565b811461515b57600080fd5b50565b60008135905061516d81615147565b92915050565b60006101e0828403121561518a57615189614fc6565b5b6151956101e061502b565b905060006151a584828501614d30565b60008301525060206151b98482850161490c565b602083015250604082013567ffffffffffffffff8111156151dd576151dc615046565b5b6151e9848285016150d7565b604083015250606082013567ffffffffffffffff81111561520d5761520c615046565b5b615219848285016150d7565b606083015250608061522d84828501615128565b60808301525060a082013567ffffffffffffffff81111561525157615250615046565b5b61525d848285016150d7565b60a08301525060c082013567ffffffffffffffff81111561528157615280615046565b5b61528d848285016150d7565b60c08301525060e082013567ffffffffffffffff8111156152b1576152b0615046565b5b6152bd848285016150d7565b60e08301525061010082013567ffffffffffffffff8111156152e2576152e1615046565b5b6152ee848285016150d7565b610100830152506101206153048482850161490c565b6101208301525061014082013567ffffffffffffffff81111561532a57615329615046565b5b615336848285016150d7565b6101408301525061016082013567ffffffffffffffff81111561535c5761535b615046565b5b615368848285016150d7565b6101608301525061018082013567ffffffffffffffff81111561538e5761538d615046565b5b61539a848285016150d7565b610180830152506101a06153b08482850161490c565b6101a0830152506101c06153c68482850161515e565b6101c08301525092915050565b600080604083850312156153ea576153e96148e1565b5b60006153f88582860161490c565b925050602083013567ffffffffffffffff811115615419576154186148e6565b5b61542585828601615173565b9150509250929050565b600081519050919050565b600082825260208201905092915050565b6000819050602082019050919050565b61546481615105565b82525050565b6154738161513d565b82525050565b60006101e0830160008301516154926000860182614c65565b5060208301516154a56020860182614a0a565b50604083015184820360408601526154bd82826149d1565b915050606083015184820360608601526154d782826149d1565b91505060808301516154ec608086018261545b565b5060a083015184820360a086015261550482826149d1565b91505060c083015184820360c086015261551e82826149d1565b91505060e083015184820360e086015261553882826149d1565b91505061010083015184820361010086015261555482826149d1565b91505061012083015161556b610120860182614a0a565b5061014083015184820361014086015261558582826149d1565b9150506101608301518482036101608601526155a182826149d1565b9150506101808301518482036101808601526155bd82826149d1565b9150506101a08301516155d46101a0860182614a0a565b506101c08301516155e96101c086018261546a565b508091505092915050565b60006156008383615479565b905092915050565b6000602082019050919050565b60006156208261542f565b61562a818561543a565b93508360208202850161563c8561544b565b8060005b85811015615678578484038952815161565985826155f4565b945061566483615608565b925060208a01995050600181019050615640565b50829750879550505050505092915050565b600060208201905081810360008301526156a48184615615565b905092915050565b600080600080600060a086880312156156c8576156c76148e1565b5b60006156d68882890161490c565b955050602086013567ffffffffffffffff8111156156f7576156f66148e6565b5b615703888289016150d7565b945050604086013567ffffffffffffffff811115615724576157236148e6565b5b615730888289016150d7565b935050606086013567ffffffffffffffff811115615751576157506148e6565b5b61575d888289016150d7565b925050608086013567ffffffffffffffff81111561577e5761577d6148e6565b5b61578a888289016150d7565b9150509295509295909350565b6000602082840312156157ad576157ac6148e1565b5b600082013567ffffffffffffffff8111156157cb576157ca6148e6565b5b6157d784828501615173565b91505092915050565b6000806000606084860312156157f9576157f86148e1565b5b600084013567ffffffffffffffff811115615817576158166148e6565b5b61582386828701615173565b935050602084013567ffffffffffffffff811115615844576158436148e6565b5b615850868287016150d7565b925050604084013567ffffffffffffffff811115615871576158706148e6565b5b61587d868287016150d7565b9150509250925092565b7f4e487b7100000000000000000000000000000000000000000000000000000000600052602260045260246000fd5b600060028204905060018216806158ce57607f821691505b6020821081036158e1576158e0615887565b5b50919050565b7f4e487b7100000000000000000000000000000000000000000000000000000000600052603260045260246000fd5b7f4e487b7100000000000000000000000000000000000000000000000000000000600052601160045260246000fd5b6000615950826148eb565b915061595b836148eb565b925082820390508181111561597357615972615916565b5b92915050565b600081549050615988816158b6565b9050919050565b60008190508160005260206000209050919050565b60006020601f8301049050919050565b600082821b905092915050565b6000600883026159f17fffffffffffffffffffffffffffffffffffffffffffffffffffffffffffffffff826159b4565b6159fb86836159b4565b95508019841693508086168417925050509392505050565b6000819050919050565b6000615a38615a33615a2e846148eb565b615a13565b6148eb565b9050919050565b6000819050919050565b615a5283615a1d565b615a66615a5e82615a3f565b8484546159c1565b825550505050565b600090565b615a7b615a6e565b615a86818484615a49565b505050565b5b81811015615aaa57615a9f600082615a73565b600181019050615a8c565b5050565b601f821115615aef57615ac08161598f565b615ac9846159a4565b81016020851015615ad8578190505b615aec615ae4856159a4565b830182615a8b565b50505b505050565b600082821c905092915050565b6000615b1260001984600802615af4565b1980831691505092915050565b6000615b2b8383615b01565b9150826002028217905092915050565b818103615b49575050615c21565b615b5282615979565b67ffffffffffffffff811115615b6b57615b6a614fcb565b5b615b7582546158b6565b615b80828285615aae565b6000601f831160018114615baf5760008415615b9d578287015490505b615ba78582615b1f565b865550615c1a565b601f198416615bbd8761598f565b9650615bc88661598f565b60005b82811015615bf057848901548255600182019150600185019450602081019050615bcb565b86831015615c0d5784890154615c09601f891682615b01565b8355505b6001600288020188555050505b5050505050505b565b7f4e487b7100000000000000000000000000000000000000000000000000000000600052603160045260246000fd5b615c5b8261497a565b67ffffffffffffffff811115615c7457615c73614fcb565b5b615c7e82546158b6565b615c89828285615aae565b600060209050601f831160018114615cbc5760008415615caa578287015190505b615cb48582615b1f565b865550615d1c565b601f198416615cca8661598f565b60005b82811015615cf257848901518255600182019150602085019450602081019050615ccd565b86831015615d0f5784890151615d0b601f891682615b01565b8355505b6001600288020188555050505b505050505050565b6000615d2f826148eb565b91507fffffffffffffffffffffffffffffffffffffffffffffffffffffffffffffffff8203615d6157615d60615916565b5b60018201905091905056fea264697066735822122037fd7f878b6f064288cf5cad871f59e3bdb997b0ac1e18e7c7c786c145be6d7564736f6c63430008180033",
  "linkReferences": {},
  "deployedLinkReferences": {}
}