{
  "_format": "hh-sol-artifact-1",
  "contractName": "Score",
  "sourceName": "contracts/Score.sol",
  "abi": [
    {
      "inputs": [
        {
          "internalType": "address",
          "name": "userAddress",
          "type": "address"
        },
        {
          "internalType": "int256",
          "name": "amount",
          "type": "int256"
        }
      ],
      "name": "changeScore",
      "outputs": [],
      "stateMutability": "nonpayable",
      "type": "function"
    },
    {
      "inputs": [
        {
          "internalType": "address",
          "name": "userAddress",
          "type": "address"
        }
      ],
      "name": "getScore",
      "outputs": [
        {
          "internalType": "int256",
          "name": "",
          "type": "int256"
        }
      ],
      "stateMutability": "view",
      "type": "function"
    }
  ],
  "bytecode": "0x608060405234801561001057600080fd5b50610301806100206000396000f3fe608060405234801561001057600080fd5b50600436106100365760003560e01c806396e9e40f1461003b578063d47875d014610057575b600080fd5b610055600480360381019061005091906101c1565b610087565b005b610071600480360381019061006c9190610201565b6100e0565b60405161007e919061023d565b60405180910390f35b806000808473ffffffffffffffffffffffffffffffffffffffff1673ffffffffffffffffffffffffffffffffffffffff16815260200190815260200160002060008282546100d59190610287565b925050819055505050565b60008060008373ffffffffffffffffffffffffffffffffffffffff1673ffffffffffffffffffffffffffffffffffffffff168152602001908152602001600020549050919050565b600080fd5b600073ffffffffffffffffffffffffffffffffffffffff82169050919050565b60006101588261012d565b9050919050565b6101688161014d565b811461017357600080fd5b50565b6000813590506101858161015f565b92915050565b6000819050919050565b61019e8161018b565b81146101a957600080fd5b50565b6000813590506101bb81610195565b92915050565b600080604083850312156101d8576101d7610128565b5b60006101e685828601610176565b92505060206101f7858286016101ac565b9150509250929050565b60006020828403121561021757610216610128565b5b600061022584828501610176565b91505092915050565b6102378161018b565b82525050565b6000602082019050610252600083018461022e565b92915050565b7f4e487b7100000000000000000000000000000000000000000000000000000000600052601160045260246000fd5b60006102928261018b565b915061029d8361018b565b9250828201905082811215600083121683821260008412151617156102c5576102c4610258565b5b9291505056fea2646970667358221220b779cf804628465e8ac7233f4db4dd053ea2555346c779681ab3eac0000e3ad864736f6c63430008180033",
  "linkReferences": {},
  "deployedLinkReferences": {}
}