{
  "_format": "hh-sol-artifact-1",
  "contractName": "Vote",
  "sourceName": "contracts/Vote.sol",
  "abi": [
    {
      "inputs": [
        {
          "internalType": "address",
          "name": "candidateAddress",
          "type": "address"
        },
        {
          "internalType": "string",
          "name": "newVoteDetails",
          "type": "string"
        }
      ],
      "name": "downVote",
      "outputs": [],
      "stateMutability": "nonpayable",
      "type": "function"
    },
    {
      "inputs": [
        {
          "internalType": "address",
          "name": "candidateAddress",
          "type": "address"
        }
      ],
      "name": "getAddressesThatVotedForCanidate",
      "outputs": [
        {
          "components": [
            {
              "internalType": "address",
              "name": "voterAddress",
              "type": "address"
            },
            {
              "internalType": "int256",
              "name": "cummulativeVoterContribution",
              "type": "int256"
            }
          ],
          "internalType": "struct Vote.Voter[]",
          "name": "",
          "type": "tuple[]"
        }
      ],
      "stateMutability": "view",
      "type": "function"
    },
    {
      "inputs": [
        {
          "internalType": "address",
          "name": "candidateAddress",
          "type": "address"
        }
      ],
      "name": "getCanidataTotalVotes",
      "outputs": [
        {
          "internalType": "int256",
          "name": "",
          "type": "int256"
        }
      ],
      "stateMutability": "view",
      "type": "function"
    },
    {
      "inputs": [
        {
          "internalType": "address",
          "name": "candidateAddress",
          "type": "address"
        },
        {
          "internalType": "address",
          "name": "voterAddress",
          "type": "address"
        }
      ],
      "name": "getVoterRecords",
      "outputs": [
        {
          "internalType": "string[]",
          "name": "",
          "type": "string[]"
        }
      ],
      "stateMutability": "view",
      "type": "function"
    },
    {
      "inputs": [
        {
          "internalType": "address",
          "name": "candidateAddress",
          "type": "address"
        },
        {
          "internalType": "string",
          "name": "newVoteDetails",
          "type": "string"
        }
      ],
      "name": "upVote",
      "outputs": [],
      "stateMutability": "nonpayable",
      "type": "function"
    }
  ],
  "bytecode": "0x608060405234801561001057600080fd5b506118d0806100206000396000f3fe608060405234801561001057600080fd5b50600436106100575760003560e01c80631818ed7f1461005c57806329424290146100785780636fcc68e014610094578063711940bd146100c4578063cb172bec146100f4575b600080fd5b61007660048036038101906100719190611112565b610124565b005b610092600480360381019061008d9190611112565b6106d9565b005b6100ae60048036038101906100a9919061116e565b610c8e565b6040516100bb91906112a1565b60405180910390f35b6100de60048036038101906100d991906112c3565b610d8c565b6040516100eb9190611444565b60405180910390f35b61010e6004803603810190610109919061116e565b610ee2565b60405161011b9190611475565b60405180910390f35b6000808373ffffffffffffffffffffffffffffffffffffffff1673ffffffffffffffffffffffffffffffffffffffff1681526020019081526020016000206000815461016f906114bf565b91905081905550600160008373ffffffffffffffffffffffffffffffffffffffff1673ffffffffffffffffffffffffffffffffffffffff16815260200190815260200160002060003373ffffffffffffffffffffffffffffffffffffffff1673ffffffffffffffffffffffffffffffffffffffff16815260200190815260200160002060009054906101000a900460ff166105335761020c610f2a565b33816000019073ffffffffffffffffffffffffffffffffffffffff16908173ffffffffffffffffffffffffffffffffffffffff1681525050806020018051610253906114bf565b908181525050600360008473ffffffffffffffffffffffffffffffffffffffff1673ffffffffffffffffffffffffffffffffffffffff16815260200190815260200160002081908060018154018082558091505060019003906000526020600020906002020160009091909190915060008201518160000160006101000a81548173ffffffffffffffffffffffffffffffffffffffff021916908373ffffffffffffffffffffffffffffffffffffffff16021790555060208201518160010155505060006001600360008673ffffffffffffffffffffffffffffffffffffffff1673ffffffffffffffffffffffffffffffffffffffff168152602001908152602001600020805490506103669190611511565b905080600260008673ffffffffffffffffffffffffffffffffffffffff1673ffffffffffffffffffffffffffffffffffffffff16815260200190815260200160002060003373ffffffffffffffffffffffffffffffffffffffff1673ffffffffffffffffffffffffffffffffffffffff16815260200190815260200160002081905550600460008573ffffffffffffffffffffffffffffffffffffffff1673ffffffffffffffffffffffffffffffffffffffff16815260200190815260200160002060003373ffffffffffffffffffffffffffffffffffffffff1673ffffffffffffffffffffffffffffffffffffffff168152602001908152602001600020839080600181540180825580915050600190039060005260206000200160009091909190915090816104979190611751565b5060018060008673ffffffffffffffffffffffffffffffffffffffff1673ffffffffffffffffffffffffffffffffffffffff16815260200190815260200160002060003373ffffffffffffffffffffffffffffffffffffffff1673ffffffffffffffffffffffffffffffffffffffff16815260200190815260200160002060006101000a81548160ff02191690831515021790555050506106d5565b600360008373ffffffffffffffffffffffffffffffffffffffff1673ffffffffffffffffffffffffffffffffffffffff168152602001908152602001600020600260008473ffffffffffffffffffffffffffffffffffffffff1673ffffffffffffffffffffffffffffffffffffffff16815260200190815260200160002060003373ffffffffffffffffffffffffffffffffffffffff1673ffffffffffffffffffffffffffffffffffffffff1681526020019081526020016000205481548110610600576105ff611823565b5b90600052602060002090600202016001016000815461061e906114bf565b91905081905550600460008373ffffffffffffffffffffffffffffffffffffffff1673ffffffffffffffffffffffffffffffffffffffff16815260200190815260200160002060003373ffffffffffffffffffffffffffffffffffffffff1673ffffffffffffffffffffffffffffffffffffffff168152602001908152602001600020819080600181540180825580915050600190039060005260206000200160009091909190915090816106d39190611751565b505b5050565b6000808373ffffffffffffffffffffffffffffffffffffffff1673ffffffffffffffffffffffffffffffffffffffff1681526020019081526020016000206000815461072490611852565b91905081905550600160008373ffffffffffffffffffffffffffffffffffffffff1673ffffffffffffffffffffffffffffffffffffffff16815260200190815260200160002060003373ffffffffffffffffffffffffffffffffffffffff1673ffffffffffffffffffffffffffffffffffffffff16815260200190815260200160002060009054906101000a900460ff16610ae8576107c1610f2a565b33816000019073ffffffffffffffffffffffffffffffffffffffff16908173ffffffffffffffffffffffffffffffffffffffff168152505080602001805161080890611852565b908181525050600360008473ffffffffffffffffffffffffffffffffffffffff1673ffffffffffffffffffffffffffffffffffffffff16815260200190815260200160002081908060018154018082558091505060019003906000526020600020906002020160009091909190915060008201518160000160006101000a81548173ffffffffffffffffffffffffffffffffffffffff021916908373ffffffffffffffffffffffffffffffffffffffff16021790555060208201518160010155505060006001600360008673ffffffffffffffffffffffffffffffffffffffff1673ffffffffffffffffffffffffffffffffffffffff1681526020019081526020016000208054905061091b9190611511565b905080600260008673ffffffffffffffffffffffffffffffffffffffff1673ffffffffffffffffffffffffffffffffffffffff16815260200190815260200160002060003373ffffffffffffffffffffffffffffffffffffffff1673ffffffffffffffffffffffffffffffffffffffff16815260200190815260200160002081905550600460008573ffffffffffffffffffffffffffffffffffffffff1673ffffffffffffffffffffffffffffffffffffffff16815260200190815260200160002060003373ffffffffffffffffffffffffffffffffffffffff1673ffffffffffffffffffffffffffffffffffffffff16815260200190815260200160002083908060018154018082558091505060019003906000526020600020016000909190919091509081610a4c9190611751565b5060018060008673ffffffffffffffffffffffffffffffffffffffff1673ffffffffffffffffffffffffffffffffffffffff16815260200190815260200160002060003373ffffffffffffffffffffffffffffffffffffffff1673ffffffffffffffffffffffffffffffffffffffff16815260200190815260200160002060006101000a81548160ff0219169083151502179055505050610c8a565b600360008373ffffffffffffffffffffffffffffffffffffffff1673ffffffffffffffffffffffffffffffffffffffff168152602001908152602001600020600260008473ffffffffffffffffffffffffffffffffffffffff1673ffffffffffffffffffffffffffffffffffffffff16815260200190815260200160002060003373ffffffffffffffffffffffffffffffffffffffff1673ffffffffffffffffffffffffffffffffffffffff1681526020019081526020016000205481548110610bb557610bb4611823565b5b906000526020600020906002020160010160008154610bd390611852565b91905081905550600460008373ffffffffffffffffffffffffffffffffffffffff1673ffffffffffffffffffffffffffffffffffffffff16815260200190815260200160002060003373ffffffffffffffffffffffffffffffffffffffff1673ffffffffffffffffffffffffffffffffffffffff16815260200190815260200160002081908060018154018082558091505060019003906000526020600020016000909190919091509081610c889190611751565b505b5050565b6060600360008373ffffffffffffffffffffffffffffffffffffffff1673ffffffffffffffffffffffffffffffffffffffff168152602001908152602001600020805480602002602001604051908101604052809291908181526020016000905b82821015610d8157838290600052602060002090600202016040518060400160405290816000820160009054906101000a900473ffffffffffffffffffffffffffffffffffffffff1673ffffffffffffffffffffffffffffffffffffffff1673ffffffffffffffffffffffffffffffffffffffff16815260200160018201548152505081526020019060010190610cef565b505050509050919050565b6060600460008473ffffffffffffffffffffffffffffffffffffffff1673ffffffffffffffffffffffffffffffffffffffff16815260200190815260200160002060008373ffffffffffffffffffffffffffffffffffffffff1673ffffffffffffffffffffffffffffffffffffffff168152602001908152602001600020805480602002602001604051908101604052809291908181526020016000905b82821015610ed6578382906000526020600020018054610e4990611574565b80601f0160208091040260200160405190810160405280929190818152602001828054610e7590611574565b8015610ec25780601f10610e9757610100808354040283529160200191610ec2565b820191906000526020600020905b815481529060010190602001808311610ea557829003601f168201915b505050505081526020019060010190610e2a565b50505050905092915050565b60008060008373ffffffffffffffffffffffffffffffffffffffff1673ffffffffffffffffffffffffffffffffffffffff168152602001908152602001600020549050919050565b6040518060400160405280600073ffffffffffffffffffffffffffffffffffffffff168152602001600081525090565b6000604051905090565b600080fd5b600080fd5b600073ffffffffffffffffffffffffffffffffffffffff82169050919050565b6000610f9982610f6e565b9050919050565b610fa981610f8e565b8114610fb457600080fd5b50565b600081359050610fc681610fa0565b92915050565b600080fd5b600080fd5b6000601f19601f8301169050919050565b7f4e487b7100000000000000000000000000000000000000000000000000000000600052604160045260246000fd5b61101f82610fd6565b810181811067ffffffffffffffff8211171561103e5761103d610fe7565b5b80604052505050565b6000611051610f5a565b905061105d8282611016565b919050565b600067ffffffffffffffff82111561107d5761107c610fe7565b5b61108682610fd6565b9050602081019050919050565b82818337600083830152505050565b60006110b56110b084611062565b611047565b9050828152602081018484840111156110d1576110d0610fd1565b5b6110dc848285611093565b509392505050565b600082601f8301126110f9576110f8610fcc565b5b81356111098482602086016110a2565b91505092915050565b6000806040838503121561112957611128610f64565b5b600061113785828601610fb7565b925050602083013567ffffffffffffffff81111561115857611157610f69565b5b611164858286016110e4565b9150509250929050565b60006020828403121561118457611183610f64565b5b600061119284828501610fb7565b91505092915050565b600081519050919050565b600082825260208201905092915050565b6000819050602082019050919050565b6111d081610f8e565b82525050565b6000819050919050565b6111e9816111d6565b82525050565b60408201600082015161120560008501826111c7565b50602082015161121860208501826111e0565b50505050565b600061122a83836111ef565b60408301905092915050565b6000602082019050919050565b600061124e8261119b565b61125881856111a6565b9350611263836111b7565b8060005b8381101561129457815161127b888261121e565b975061128683611236565b925050600181019050611267565b5085935050505092915050565b600060208201905081810360008301526112bb8184611243565b905092915050565b600080604083850312156112da576112d9610f64565b5b60006112e885828601610fb7565b92505060206112f985828601610fb7565b9150509250929050565b600081519050919050565b600082825260208201905092915050565b6000819050602082019050919050565b600081519050919050565b600082825260208201905092915050565b60005b8381101561136957808201518184015260208101905061134e565b60008484015250505050565b60006113808261132f565b61138a818561133a565b935061139a81856020860161134b565b6113a381610fd6565b840191505092915050565b60006113ba8383611375565b905092915050565b6000602082019050919050565b60006113da82611303565b6113e4818561130e565b9350836020820285016113f68561131f565b8060005b85811015611432578484038952815161141385826113ae565b945061141e836113c2565b925060208a019950506001810190506113fa565b50829750879550505050505092915050565b6000602082019050818103600083015261145e81846113cf565b905092915050565b61146f816111d6565b82525050565b600060208201905061148a6000830184611466565b92915050565b7f4e487b7100000000000000000000000000000000000000000000000000000000600052601160045260246000fd5b60006114ca826111d6565b91507f800000000000000000000000000000000000000000000000000000000000000082036114fc576114fb611490565b5b600182039050919050565b6000819050919050565b600061151c82611507565b915061152783611507565b925082820390508181111561153f5761153e611490565b5b92915050565b7f4e487b7100000000000000000000000000000000000000000000000000000000600052602260045260246000fd5b6000600282049050600182168061158c57607f821691505b60208210810361159f5761159e611545565b5b50919050565b60008190508160005260206000209050919050565b60006020601f8301049050919050565b600082821b905092915050565b6000600883026116077fffffffffffffffffffffffffffffffffffffffffffffffffffffffffffffffff826115ca565b61161186836115ca565b95508019841693508086168417925050509392505050565b6000819050919050565b600061164e61164961164484611507565b611629565b611507565b9050919050565b6000819050919050565b61166883611633565b61167c61167482611655565b8484546115d7565b825550505050565b600090565b611691611684565b61169c81848461165f565b505050565b5b818110156116c0576116b5600082611689565b6001810190506116a2565b5050565b601f821115611705576116d6816115a5565b6116df846115ba565b810160208510156116ee578190505b6117026116fa856115ba565b8301826116a1565b50505b505050565b600082821c905092915050565b60006117286000198460080261170a565b1980831691505092915050565b60006117418383611717565b9150826002028217905092915050565b61175a8261132f565b67ffffffffffffffff81111561177357611772610fe7565b5b61177d8254611574565b6117888282856116c4565b600060209050601f8311600181146117bb57600084156117a9578287015190505b6117b38582611735565b86555061181b565b601f1984166117c9866115a5565b60005b828110156117f1578489015182556001820191506020850194506020810190506117cc565b8683101561180e578489015161180a601f891682611717565b8355505b6001600288020188555050505b505050505050565b7f4e487b7100000000000000000000000000000000000000000000000000000000600052603260045260246000fd5b600061185d826111d6565b91507f7fffffffffffffffffffffffffffffffffffffffffffffffffffffffffffffff820361188f5761188e611490565b5b60018201905091905056fea2646970667358221220a3f1240ec34d39f07c608e03f42d05f907268983a750fee323d099d523233be564736f6c63430008180033",
  "linkReferences": {},
  "deployedLinkReferences": {}
}